:0400000007EF00F016
:0A0008003282E6ED04F066EF06F028
:1008000000486F72613A00466563683A0000000E66
:10081000956EEA0E1D6EC30EE82EFED71D2EFCD778
:1008200000F0E9EC05F0010E176E080E186E050ECB
:10083000196E49EC06F0000E176E020EB4EC06F0CD
:10084000070E176E080E186E050E196E49EC06F0AD
:10085000010EC6EC06F09D80310ECD6EF28CF28E4C
:100860003150D8A4FDD7060E176E010EB4EC06F079
:100870002EC014F0156A000E176E0A0E166E6FEC7D
:1008800005F01450300F80EC06F02EC014F0156AFD
:10089000000E176E0A0E166EB1EC05F01450300FF4
:1008A00080EC06F03A0E80EC06F02FC014F0156ACA
:1008B000000E176E0A0E166E6FEC05F01450300F16
:1008C00080EC06F02FC014F0156A000E176E0A0EA9
:1008D000166EB1EC05F01450300F80EC06F03A0EB5
:1008E00080EC06F030C014F0156A000E176E0A0E88
:1008F000166E6FEC05F01450300F80EC06F030C02F
:1009000014F0156A000E176E0A0E166EB1EC05F0A3
:100910001450300F80EC06F0060E176E020EB4EC89
:1009200006F02DC014F0156A000E176E0A0E166E32
:100930006FEC05F01450300F80EC06F02DC014F071
:10094000156A000E176E0A0E166EB1EC05F0145003
:10095000300F80EC06F02F0E80EC06F02CC014F067
:10096000156A000E176E0A0E166E6FEC05F0145025
:10097000300F80EC06F02CC014F0156A000E176ED4
:100980000A0E166EB1EC05F01450300F80EC06F034
:100990002F0E80EC06F02BC014F0156A000E176EB7
:1009A0000A0E166E6FEC05F01450300F80EC06F056
:1009B0002BC014F0156A000E176E0A0E166EB1ECFD
:1009C00005F01450300F80EC06F04AD70600FACF3D
:1009D00002F0FBCF03F0E9CF04F0EACF05F0E1CF5E
:1009E00006F0E2CF07F0D9CF08F0DACF09F0F3CF65
:1009F0000AF0F4CF0BF0F6CF0CF0F7CF0DF0F8CFF4
:100A00000EF0F5CF0FF032C010F033C011F034C04B
:100A100012F035C013F09E90312A0F0E3118D8A471
:100A200038D0000E316E302A3C0E3018D8A403D0D6
:100A3000000E306E2F2A3C0E2F18D8A403D02E2A79
:100A4000000E2F6E180E2E18D8A403D0000E2E6E96
:100A50002D2A2C50010D1E0EF324D96E000EF42009
:100A6000DA6E2D50DE5CD8B003D02C2A010E2D6E2C
:100A70000D0E2C18D8A403D0010E2C6E2B2A2BC0DF
:100A800001F0030E0116D8A402D01D0E01D01C0ED9
:100A9000206E13C035F012C034F011C033F010C016
:100AA00032F00FC0F5FF0EC0F8FF0DC0F7FF0CC00D
:100AB000F6FF0BC0F4FF0AC0F3FF09C0DAFF08C05D
:100AC000D9FF07C0E2FF06C0E1FF05C0EAFF04C08E
:100AD000E9FF03C0FBFF02C0FAFF32921100000ED3
:100AE000196E17AE06D0166C171ED8B0172A010E55
:100AF000196E15AE06D0146C151ED8B0152A010E4D
:100B0000191A000E1B6E000E1A6E16501710D8B46C
:100B10001CD0010E186E04D0D89016361736182A3D
:100B200017AEFAD7D8901A361B361650145C1750E9
:100B30001558D8A005D01650145E1750155A1A80B3
:100B4000D89017321632182EEDD71950D8B404D0D9
:100B50001A6C1B1ED8B01B2A1AC014F01BC015F04B
:100B60001200000E196E15AE06D0146C151ED8B00A
:100B7000152A010E196E17AE04D0166C171ED8B0C8
:100B8000172A16501710D8B418D0010E186E04D0BA
:100B9000D89016361736182A17AEFAD71650145CA6
:100BA00017501558D8A004D01650145E1750155A77
:100BB000D89017321632182EF1D71950D8B404D065
:100BC000146C151ED8B0152A14C014F015C015F0F9
:100BD00012008C908C92300ED4EC06F0200E176E22
:100BE0002A0EE82EFED7172EFCD7200E176E2A0EDF
:100BF000E82EFED7172EFCD7300ED4EC06F0F00E00
:100C000000D0E82EFDD7300ED4EC06F0200ED4EC48
:100C100006F0010E9AEC06F0280E9AEC06F00F0E84
:100C20009AEC06F0060E9AEC06F0010E9AEC06F02D
:100C30001200F80E956E8C908C828C84F00E00D091
:100C4000E82EFDD783CF14F08C94F00E00D0E82E60
:100C5000FDD78C84F00E00D0E82EFDD711D08C8407
:100C6000F00E00D0E82EFDD783CF14F08C94F00E58
:100C700000D0E82EFDD78C84F00E00D0E82EFDD7F2
:100C80008C941450800B146E800E1418D8A412008B
:100C9000E6D7000E1C6E000E1C6E13D01C50010D0A
:100CA00017C01AF018C01BF0F3501A26F4501B227C
:100CB0001AC0F6FF1BC0F7FF0800F55080EC06F0E5
:100CC0001C2A19501C5CD8B01200E8D7C40EF66E6E
:100CD0000D0EF76E000EF86E00EE1EF010EE13F023
:100CE0000900F5CFEEFFE550E150FAE1316A3290AC
:100CF0003292000EF86E080EF76E000107EF04F056
:100D0000156E8C8019EC06F0000E956EF00E00D07A
:100D1000E82EFDD78C928C948C801550F00B166EBB
:100D20001650D4EC06F01538F00B166E1650D4ECB5
:100D300006F01200156E8C9019EC06F0000E956E00
:100D4000F00E00D0E82EFDD78C928C948C9015502C
:100D5000F00B166E1650D4EC06F01538F00B166E2C
:100D60001650D4EC06F01200186E1804D8A405D062
:100D70001750800F9AEC06F01200020E1818D8A433
:100D800012001750C00F9AEC06F01200176E1750A1
:100D9000D8A403D00E0E9AEC06F01704D8A41200C3
:100DA0000C0E9AEC06F01200146E0F0E8C16F00E5C
:100DB000141614508C128C84F00E00D0E82EFDD73F
:100DC0008C941200001F1C1F1E1F1E1F1F1E1F1EA3
:070DD0001F10021C173B324B
:020000040020DA
:08000000FFFFFFFFFFFFFFFF00
:020000040030CA
:0E00000000021E1EFF8181FF0FC00FE00F40A7
:00000001FF
